:020000040800F2
:1000000090100020450100089F1E0008971300086B
:100010009B1E00089D0A00085F31000800000000D8
:10002000000000000000000000000000DD2A0008C1
:10003000610C000800000000C5290008C92B000859
:100040005F0100085F0100085F0100085F01000810
:100050005F0100085F01000885100008B510000866
:100060005F0100085F0100085F0100085F010008F0
:100070005F0100085F0100085F0100085F010008E0
:100080005F0100085F0100085F0100085F010008D0
:100090005F0100085F0100085F0100085F010008C0
:1000A0005F0100085F0100085F0100085F010008B0
:1000B0002D2C0008052D00085F0100085F010008D5
:1000C0005F0100085F0100085F0100085F01000890
:1000D0005F010008BD2E0008452F00085F010008E1
:1000E0005F0100085F0100085F0100085F01000870
:1000F0005F0100085F0100085F0100085F01000860
:100100005F0100085F0100085F0100085F0100084F
:100110005F0100085F0100085F0100085F0100083F
:100120005F0100085F0100085F0100085F0100082F
:10013000DFF80CD000F0A2FB004800479D3F00080C
:10014000901000200648804706480047FEE7FEE77B
:10015000FEE7FEE7FEE7FEE7FEE7FEE7FEE7FEE777
:10016000CD2B000831010008A0F14101192900D868
:100170002030704740EA01039B0703D009E008C91B
:10018000121F08C0042AFAD203E011F8013B00F85C
:10019000013B521EF9D27047D2B201E000F8012BA8
:1001A000491EFBD270470022F6E710B513460A46F7
:1001B00004461946FFF7F0FF204610BD30B505464E
:1001C0002A460B4612F8010B13F8014B08B1A04266
:1001D000F8D01CB1002802D06D1CF1E7284630BDD4
:1001E000CAB2401E10F8011F8A4202D00029F9D17C
:1001F00000207047421C10F8011B0029FBD1801A17
:10020000704710B5044600E0401C0378002BFBD17A
:1002100000E0401C521E04D311F8013B0370002B78
:10022000F7D100210170204610BD30B505460020F1
:10023000034600E05B1C934205D2EC5CC85C201ACC
:1002400001D1002CF6D130BD70B5064603F0B4F8EC
:10025000046805460A220021304600F0DBF92C60D4
:1002600070BD2DE9FE4F804681EA0300C00F0C46A9
:10027000009021F0004123F00045B8EB0200A941B5
:1002800005D24046214690461C460B46024623F0C6
:100290000040104347D0270DC7F30A00C3F30A51AB
:1002A0000290401A019040286BDAC3F3130040F427
:1002B000801B0098924620B10023D2EB030A63EB27
:1002C0000B0B01985946C0F14002504600F071F9FD
:1002D00006460D4650465946019A00F089F910EB42
:1002E00008006141002487EA115284EAE7731A4347
:1002F00040D0009A62B3019A012A4FEA075215DCF6
:10030000001B61EB02014FF0004202EA0752CDE907
:100310000042001C41F5801132462B4600F0C1F925
:1003200003B0BDE8F08F40462146F9E7001B61EBC2
:100330000201001C41F5801300185B412018A2F552
:10034000001747EB030140EAD570B6196D4111E083
:100350006D084FEA360645EAC0754FEA0752001BA2
:1003600061EB0201001C41F5801149084FEA3000A1
:100370000019514132462B4603B0BDE8F04F00F062
:1003800081B90098012240000023D0EB020263EB08
:10039000E073009821464FEAE074B8EB000061EB8F
:1003A0000401E9E783F000435BE781F0004158E78F
:1003B0002DE9FE4F81EA030404F0004421F00041DE
:1003C00000944FF0000B23F0004350EA01045ED08C
:1003D00052EA03045BD0C3F30A54C1F30A552C4418
:1003E000A4F2F3340194A0FB0254C1F3130141F4CD
:1003F0008011C3F3130343F4801301FB024400FB99
:10040000034E840A970A44EA815447EA8357A4FBBF
:10041000076802958D0A05FB07854FEA932C04FBBC
:100420000C542705029D4FEA065847EA1637B5EBEC
:1004300008056EEB070C870E920E47EA811742EA19
:100440008312A7FB0201B6EB0B0164EB00042B0D3A
:1004500043EA0C335E1844EB1C50DA465146E7FB86
:100460000201C5F313044FEA0B3343EA14534FEA76
:100470000432019C43EA0603A4F10C040294009C9C
:10048000CDE900B400F00DF903B0BDE8F08F002015
:100490000146F9E70EB5C10F80EAE0700844CA07CB
:1004A000002140F233438DE80E000A460B4600F06F
:1004B000F8F803B000BD70B5C1F30A5201F0004571
:1004C0000024C1F3130140F2FF3341F480119A423A
:1004D00001DA002070BD40F233439A42A2F2334267
:1004E00003DC524200F074F800E090402C43F1D05D
:1004F000404270BD30B5041E71F1000404DB4FF0C2
:100500000044404264EB0101141E73F1000405DB5A
:100510001C464FF00043524263EB0403994208BF6C
:10052000904230BD30B50B46014600202022012408
:1005300009E021FA02F59D4205D303FA02F5491BB1
:1005400004FA02F52844151EA2F10102F1DC30BDC7
:100550002DE9F05F0546002092469B4688460646F8
:10056000814640241BE0284641464746224600F08B
:100570002FF853465A46C01A914110D311461846D7
:10058000224600F016F82D1A67EB01084F46224666
:100590000120002100F00DF817EB00094E41201E4C
:1005A000A4F10104DFDC484631462A464346BDE853
:1005B000F09F202A04DB203A00FA02F10020704765
:1005C0009140C2F1200320FA03F319439040704791
:1005D000202A04DB203A21FA02F00021704721FA98
:1005E00002F3D040C2F120029140084319467047FF
:1005F000202A06DBCB17203A41FA02F043EAE073E7
:1006000006E041FA02F3D040C2F1200291400843D3
:10061000194670472DE9F04791460F46804604463B
:10062000002614F8015B2DB100F03AF90068405D36
:10063000C007F6D12B2D02D02D2D18D0641E4A46AE
:100640003946204600F030F927B13968A14201D17E
:10065000C7F8008071054FF002040BD54042002816
:1006600003DD02F0A9FE0460A007BDE8F08746F4B0
:100670008066E4E70028F8DA02F09EFE04606FF07E
:100680000040F2E710B5141E73F1000408DA401CB4
:1006900041F1000192185B411A4301D120F00100A1
:1006A00010BD2DE9F04D92469B4611B1B1FA81F291
:1006B00002E0B0FA80F220329046FFF77AFF04465B
:1006C0000F4640EA0A0041EA0B0153465A460843E6
:1006D00013D0114653EA010019D0C8F14002504628
:1006E000FFF776FF05460E46504659464246FFF74D
:1006F00060FF084305D0012004E020463946BDE8EC
:10070000F08D0020054346EAE0762C4337430A98F3
:100710006305E40AA0EB08000022FD0A44EA4754FE
:100720000A3002D500200146E9E7010510196941A8
:10073000DDE9084500196941BDE8F04DA2E72DE962
:10074000F04D81EA030404F0004B21F0004514460B
:100750004FF0000A23F0004150EA050220D054EA8D
:1007600001021DD0C5F30A570246C5F31303C1F3B6
:100770001300C1F30A5640F4801543F48013A7EB2D
:100780000608101BD64608F2FD3873EB050002D3AD
:1007900008F1010801E092185B41B8F1000F03DA9B
:1007A00000200146BDE8F08D00204FF48011064680
:1007B00084460EE0171B73EB050705D3121B63EB92
:1007C000050306434CEA010C49084FEA3000921831
:1007D0005B4150EA0107EDD152EA030012D082EAF0
:1007E000040083EA0501084305D0101BAB4106D283
:1007F0000122002306E000224FF0004302E06FF0E8
:10080000010253101AEB06004CEB085110EB0A00E2
:1008100041EB0B01BDE8F04DFFF734BF70B521F09F
:10082000004303430CD0C1F30A550024D5EB040563
:1008300064EB0403D617AD1AB34102DB0020014676
:1008400070BD201841EB025170BDC1F30A52C1F3D3
:10085000130140F2FF3341F480119A4202DA002082
:100860000146704740F233439A42A2F2334202DC1F
:100870005242FFF7ADBEFFF79CBE0000064C074D8D
:1008800006E0E06840F0010394E807009847103460
:10089000AC42F6D3FFF750FC7C5A00089C5A000883
:1008A00000487047645A00082DE9F05F82460078DE
:1008B000002715468B460AF10104B946302801D0BD
:1008C0009DB113E014F8010B0127782803D05828B4
:1008D00001D045B10AE00DB1102D07D10027102538
:1008E00014F8010B02E0082500E00A250026B046B6
:1008F0000EE005FB080005FB06F1012701EB1046A1
:100900001FFA80F8B6F5803F00D3B94614F8010B02
:10091000294600F069F80028EBDABBF1000F05D09A
:100920000FB1641E00E05446CBF80040B9F1000F4F
:1009300006D002F041FD02210160C81EBDE8F09F13
:1009400048EA0640FAE72DE9F04D00231A461B1A43
:100950008A4103DB00200146BDE8F08DC1F30A5255
:10096000C1F3130141F480154FF0000BD10702D100
:1009700000186D41521E0027044640F2FF11384610
:1009800001EB620A3E468046024600204FF4801189
:10099000FFF71EFEC2197141BB1846EB0100B4EB14
:1009A000030C75EB000C04D3E41A65EB0005174645
:1009B0000E46241908F101006D4180463428E3DD1C
:1009C000F91946EB0600091BA84103D24FF0FF328C
:1009D000134601E0002213461BEB070046EB0A51C9
:1009E000BDE8F04DFFF74EBE3A2800D2303820F077
:1009F0002002412A01D3A2F13700884201D34FF0EF
:100A0000FF30704770B58D1810F8014B14F00302D9
:100A100001D110F8012B231106D110F8013B03E09E
:100A200010F8016B01F8016B521EF9D1ABB110F84F
:100A3000012B04F00C048A1A0C2C03D0A2EB8412B4
:100A40009B1C08E010F8014BA2EB0422F8E712F817
:100A5000014B01F8014B5B1EF9D5A942D4D300200C
:100A600070BD000008B50121082001F0BDFF4FF462
:100A70008050ADF8000010208DF8030003208DF8A1
:100A800002006946044800F0E9FB4FF48051024837
:100A900000F07AFC08BD0000000C014000BFFEE73A
:100AA00010B5002400F02AF804E0601CC4B2012054
:100AB00000F0D8F84FF400610F4800F05AFC01280C
:100AC00001D1642CF1DB642C01DB012010BD00247A
:100AD00004E0601CC4B2012000F0C4F84FF40061CF
:100AE000054800F046FC08B9642CF2DB642C01DBFD
:100AF0000120EBE70020E9E7000C014008B50121E7
:100B0000082001F071FF0121084601F06DFF4FF44C
:100B10000060ADF8000004208DF80300694602482B
:100B200000F09CFB08BD0000000C014008B54FF42C
:100B30000060ADF8000003208DF8020010208DF851
:100B400003006946014800F089FB08BD000C014024
:100B500010B500F06FF8FFF7A3FF10BD10B500242B
:100B600004E0601CC4B2012000F07CF84FF4006186
:100B7000114800F0FEFB012801D1642CF1DB0024B8
:100B800004E0601CC4B2012000F06CF84FF4006176
:100B9000094800F0EEFB08B9642CF2DB282000F0D5
:100BA00061F84FF40061044800F0E3FB012800D134
:100BB00010BD0020FCE70000000C014070B50024CF
:100BC000002506E06006040EFFF7C8FF0443681C1A
:100BD000C5B2082DF6DB204670BD7CB505460E4635
:100BE00000F028F8FFF75CFFF8B9002405E0FFF7F4
:100BF000E5FF0DF80400601CC4B2052CF7DB9DF87E
:100C000000009DF8011008449DF8021008449DF86A
:100C1000031008449DF80410884208D19DF8000094
:100C200030709DF80200287001E001207CBD00209A
:100C3000FCE7000010B5FFF779FF4FF400610748AB
:100C400000F0A0FB142000F02DF84FF400610348E1
:100C500000F09AFB1E2000F005F810BD000C0140CA
:100C600070470000002120F07F400D4A1278424377
:100C70004FF0E0235A6100229A6101221A6100BFFD
:100C80004FF0E022116901F001021AB101F4803243
:100C9000002AF5D000224FF0E0231A619A617047D4
:100CA00020080020002100B9704720F07F400E4A44
:100CB000128842434FF0E0235A6100229A610122D8
:100CC0001A6100BF4FF0E022116901F001021AB170
:100CD00001F48032002AF5D000224FF0E0231A619F
:100CE0009A6100BFE0E70000220800204FF0E020FA
:100CF000006920F004004FF0E02108610920074955
:100D000008700846007800EB4001C1EBC0104FF6B8
:100D1000FF7101EAC00002490880704720080020E6
:100D20002208002010B580210348FFF73CFA00207C
:100D30000249088010BD0000100A00202A08002087
:100D400070B50546002400BF00F082F980B90DA1FE
:100D50000E48FFF733FA044654B13A212046FFF714
:100D60003FFA044614B1641C204670BD0020FCE725
:100D70000520FFF797FF681E85B2002DE4DC0020F8
:100D8000F3E700004950442C00000000100A002046
:100D900008B50121042001F027FE10208DF8030082
:100DA0008002ADF8000003208DF8020069463D483E
:100DB00000F054FA00224FF480413A4800F0E6FA7D
:100DC000FA20FFF76FFF01229103364800F0DEFAA8
:100DD0004FF4FA70FFF766FFFFF7A4FF32A1344823
:100DE00002F06EFA03E04FF4FA70FFF75BFF31A1F7
:100DF00031A000F0DFF80028F5D131A12C4802F035
:100E00005FFA2EA131A000F0D5F84FF4FA70FFF789
:100E100049FF2AA130A000F0CDF84FF4FA70FFF797
:100E200041FF31A1224802F04BFA03E04FF4FA707F
:100E3000FFF738FF1FA12FA000F0BCF80028F5D164
:100E400030A11B4802F03CFA03E04FF4FA70FFF7C0
:100E500029FF18A12FA000F0ADF80028F5D131A18D
:100E6000134802F02DFA03E04FF4FA70FFF71AFF6F
:100E70002FA131A000F09EF80028F5D136A10C4832
:100E800002F01EFA03E04FF4FA70FFF70BFF36A1F1
:100E900037A000F08FF80028F5D140A1044802F0F7
:100EA0000FFA08BD00100140302E2041540D0A00F9
:100EB000003801404F4B000041540D0A0000000073
:100EC000312E205253540D0A0000000041542B5281
:100ED00053543D310D0A000041542B434950434CBB
:100EE0004F53453D310D0A00322E2043574D4F449C
:100EF000450D0A0041542B43574D4F44453D310D9C
:100F00000A000000332E2041542B435744484350DD
:100F10000D0A000041542B4357444843503D312CA7
:100F2000310D0A00342E2043574A41500D0A00006B
:100F3000474F54204950000041542B43574A4150D9
:100F40003D22512D63616665222C223339393839AF
:100F5000303232220D0A0000352E204349505354BE
:100F60004152540D0A000000434F4E4E4543540079
:100F700041542B43495053544152543D2254435001
:100F8000222C2262726F6B65722E656D71782E69EC
:100F90006F222C313838330D0A000000362E2045E0
:100FA00053503832363620496E6974204F4B0D0A43
:100FB000000000002DE9F04104460D46C8262046F9
:100FC000FFF718F987B23A4621460D4802F09CF91E
:100FD0000FE000F03DF848B929460A48FFF7EEF85F
:100FE00020B1FFF79FFE0020BDE8F0810A20FFF747
:100FF00059FE301EA6F10101CEB2EAD10120F3E77D
:1010000000440040100A002030B589B004460D4667
:10101000FFF788FE2A4608A101A802F08FF90AA16D
:1010200001A8FFF7C7FF20B92A462146074802F06A
:101030006BF909B030BD000041542B434950534572
:101040004E443D25640D0A003E000000004400406F
:101050000A48008808B901207047084800880849F4
:101060000988884203D1002004490880F4E7034836
:101070000088034908800120EEE700002A080020CC
:101080002C08002010B50A2002F042FF0848006832
:1010900048B90748B430006808B9012000E00020D2
:1010A0000349B4310860012000F068F810BD000069
:1010B0000081214210B50A2002F02AFF084800688A
:1010C00050B90848007808B9012000E0002005491F
:1010D0000870002004490870022000F04FF810BD8D
:1010E0000481214200080020010800200EB500F014
:1010F00055F90121084601F077FC0021012000F09C
:101100008DF80120019000208DF808000C208DF84A
:10111000090001208DF8030001A800F035F8012135
:10112000084600F07BF80220019000208DF80800AE
:101130000C208DF8090001208DF8030001A800F0B3
:1011400023F806208DF8000002208DF801008DF8AC
:10115000020001208DF80300684600F0A1FE072080
:101160008DF8000002208DF8010001208DF80200AA
:101170008DF80300684600F093FE0EBD014908603B
:101180007047000014040140002123498279002A9D
:101190003AD00A46126803689A430B461A600A1D41
:1011A000126803689A430B1D1A60027911440A6899
:1011B00003681A430A60184A0832126803689A439F
:1011C000154B08331A601A1D126803689A43124BB4
:1011D0000C331A604279102A0ED11A1F1268036864
:1011E0001A430D4B08331A601A1D126803681A431C
:1011F000094B0C331A600DE00749427911440A6823
:1012000003681A430A6005E0027911440A6803681A
:101210009A430A60704700000004014030B5002284
:101220008B071C0F0F2303FA04F20B4B8C1053F89F
:1012300024309343084C8D1044F8253023468C10FD
:1012400053F824308C07240F00FA04F42343024C93
:101250008D1044F8253030BD080001402DE9F041E3
:10126000024600250026002000230024002791F8D4
:1012700003C00CF00F0591F803C00CF0100CBCF18A
:10128000000F03D091F802C04CEA050591F800C0A8
:10129000BCF1000F31D0146800202BE04FF0010C9E
:1012A0000CFA00F3B1F800C00CEA03069E4220D10C
:1012B00083004FF00F0C0CFA03F7BC4305FA03FC54
:1012C0004CEA040491F803C0BCF1280F06D14FF09A
:1012D000010C0CFA00FCC2F814C00AE091F803C03B
:1012E000BCF1480F05D14FF0010C0CFA00FCC2F81C
:1012F00010C0401C0828D1D31460B1F800C0BCF164
:10130000FF0F34DD546800202EE000F1080C4FF090
:10131000010808FA0CF3B1F800C00CEA03069E427B
:1013200021D183004FF00F0C0CFA03F7BC4305FAF0
:1013300003FC4CEA040491F803C0BCF1280F05D16A
:1013400000F1080C08FA0CF8C2F8148091F803C0F8
:10135000BCF1480F07D100F1080C4FF0010808FA62
:101360000CF8C2F81080401C0828CED35460BDE8A9
:10137000F0810246002093680B400BB1012000E091
:101380000020704741617047016170470AB10161F7
:1013900000E04161704700BFFEE7000008B5012191
:1013A000082001F021FB0120ADF8000048208DF855
:1013B000030069460648FFF751FF0220ADF8000020
:1013C00048208DF8030069460148FFF747FF08BD34
:1013D000000C014008B50121082001F005FB4FF485
:1013E0000050ADF8000010208DF8030003208DF8A8
:1013F000020069460A48FFF731FF4FF400510848E0
:10140000FFF7C2FF4FF48040ADF800006946044882
:10141000FFF724FF4FF480410148FFF7B5FF08BDF7
:10142000000C014010B50446207B012802D1206841
:1014300002F08CFD002020606060A060207310BD71
:101440000246002301230DE002F07F000870D2095C
:101450002AB1087840F080000870491C01E0184665
:1014600070475B1C042BEFDD4FF0FF30F8E770B5E1
:1014700004460E460025206898B9012020733046A6
:1014800002F082FE20602068E0B100206060A6606B
:1014900003E00020216848556D1CA068A842F8D8D8
:1014A00010E00220207303E00020216848556D1CE5
:1014B000A068A842F8D800206060A068B04201D2BD
:1014C0000020206070BD00002DE9FF4F83B08246F0
:1014D0008B469146159C0025002002900F27019015
:1014E0004846FEF787FE0FFA80F8B9F1000F03D1E6
:1014F000012007B0BDE8F08F08F10200384487B240
:10150000109808B145F00205129878B145F004052D
:101510001298FEF76FFEC0B202901398FEF76AFEB3
:1015200001460298001D0844384487B2119820B142
:10153000012804D0022808D104E000BF07E045F0EC
:101540000C0504E045F0140501E00220D1E700BFDE
:10155000149808B145F02405BAF1000F02D0BBF190
:10156000000F01D10320C4E745F0C0055046FEF747
:1015700041FE06465846FEF73DFE3044001D384405
:1015800087B239462046FFF772FF206808B9042069
:10159000AFE739462068FEF706FE10216268501C4E
:1015A000606020688154D4E90023D118781FFFF7C8
:1015B00047FF00B201900198002804DA2046FFF7A7
:1015C00031FF052095E761680198084460600021BB
:1015D0006268501C60602068815404216268501C5D
:1015E0006060206881544D216268501C60602068F2
:1015F000815451216268501C6060206881545421DC
:101600006268501C6060206881546268501C606091
:101610002068815404216268501C606020688154F5
:101620006168481C6060206845540698010A626839
:10163000501C6060206881540698C1B26268501CDA
:10164000606020688154C8F307216268501C6060A4
:10165000206881546268501C6060206800F8028035
:10166000D4E90012881842464946FEF7CAFD606870
:101670004044606005F00400B8B30026139808B930
:1016800038A013901298FEF7B5FD86B2310A626851
:10169000501C6060206881546268501C6060206843
:1016A0008654D4E90012881832461299FEF7A9FD33
:1016B0006068304460601398FEF79CFD86B2310A82
:1016C0006268501C6060206881546268501C6060D1
:1016D00020688654D4E90012881832461399FEF720
:1016E00090FD60683044606000BF05F08000C8B1C4
:1016F0005046FEF77FFD86B2310A6268501C60607A
:10170000206881546268501C606020688654D4E967
:101710000012881832465146FEF773FD6068304467
:10172000606000BF05F04000C8B15846FEF762FD9A
:1017300086B2310A6268501C606020688154626819
:10174000501C606020688654D4E900128818324624
:101750005946FEF756FD60683044606000BF0020C7
:10176000C7E60000000000002DE9FF4F83B083466C
:1017700017469946139C00250026002002900190F0
:101780008046BBF1000F03D1012007B0BDE8F08F08
:1017900000260AE00498805D232803D00498805D29
:1017A0002B2801D10220F0E7761C0498805D0028E8
:1017B000F0D148F03008119808B148F0010806EB64
:1017C0000900851C109820B1012804D002280AD1F4
:1017D00005E000BF09E048F00208AD1C05E048F054
:1017E0000408AD1C01E00320CFE700BF8FB33878B9
:1017F000022821D14FF0000A00BF50460AF1010A29
:10180000385C7D28F9D1AAF1030A0AF10700029099
:101810000298A9EB000AE81CA0EB0A012046FFF79A
:1018200026FE206808B90420AFE7EA1CA2EB0A01F3
:101830002068FEF7B8FC19E0691D2046FFF717FE87
:10184000206808B90420A0E7691D2068FEF7ABFCFA
:101850000CE0FFE7691D2046FFF709FE206808B984
:10186000042092E7691D2068FEF79DFC6168481C12
:101870006060206800F80180D4E9000281182846E1
:10188000FFF7DEFD01900198002804DA2046FFF7FB
:10189000C9FD052079E76168019808446060C6F3D6
:1018A00007216268501C6060206881546268501C87
:1018B000606020688654D4E9001288183246049982
:1018C000FEF79FFC606830446060109860B14FEA9A
:1018D0001B216268501C6060206881546268501C43
:1018E0006060206800F802B0C7B1387802280BD1D8
:1018F000D4E9001288183946029AFEF73BFC616869
:1019000002980844606009E0D4E9001288184A4649
:101910003946FEF72FFC606848446060002034E7D9
:1019200070B505460C4604212046FFF7A0FD20684F
:1019300008B9012070BD70216268501C6060206889
:10194000815402216268501C606020688154291211
:101950006268501C6060206881546268501C60603E
:10196000206885540020E5E770B505460C46042143
:101970002046FFF77CFD206808B9012070BD622178
:101980006268501C60602068815402216268501CAB
:1019900060602068815429126268501C6060206871
:1019A00081546268501C6060206885540020E5E71F
:1019B0002DE9FF5F8046174699460E9C0026B246E9
:1019C000B3460025B8F1000F03D1012004B0BDE8F3
:1019D000F09F0BE057F8250008B90220F6E757F80A
:1019E0002500FEF707FC0644681CC5B24D45F1DB37
:1019F00009EB4900801C00EB060A0AF105012046AC
:101A0000FFF735FD206808B90320DFE7822162680F
:101A1000501C606020688154D4E90002811850464F
:101A2000FFF70EFD0FFA80FBBBF1000F04DA204632
:101A3000FFF7F8FC0420C9E76068584460604FEA8B
:101A400018216268501C6060206881546268501CD4
:101A50006060206800F80280002524E057F8250027
:101A6000FEF7C8FB0646C6F307216268501C60609B
:101A7000206881546268501C606020688654D4E9F4
:101A80000023D01857F825103246FEF7BAFB6068DD
:101A9000304460600198C1B26268501C6060206888
:101AA0008154681CC5B24D45D8DB00208EE7F0B5E7
:101AB00004460D462646012300201060002114E054
:101AC000775C07F07F07106807FB03001060705C0D
:101AD00000F0800008B9481CF0BDDB01B3F5001F21
:101AE00002D36FF00100F7E7491CA942E8DB4FF091
:101AF000FF30F1E72DE9F84380460C4615461E46B7
:101B00002F2108F10600FEF76BFB0746002000902E
:101B100017B90120BDE8F8837F1C6A46042108F14B
:101B20000100FFF7C4FF252002F02EFB2060206893
:101B300008B90220EEE725212068FEF734FB2422B5
:101B400039462068FEF716FB243700982C38308081
:101B50003188481C02F018FB2860286820B92068EA
:101B600002F0F4F90320D5E73288511C2868FEF70B
:101B70001AFB328839462868FEF7FCFA0020C9E7CC
:101B800001464878022801D001207047887810B1BA
:101B90008878012801D1C878F7E7FF20F5E7000031
:101BA0002DE9FC5F81460D4614461E46DDE90C8B8F
:101BB00099F8000000F00F0A002001900AF00800D8
:101BC0000090CAF341008BF8000001AA042109F13A
:101BD0000100FFF76CFF4844471C0198022802D31C
:101BE0000AF0010010B1FF20BDE8FC9F7878397839
:101BF00040EA012020802088801C0199884201D978
:101C0000FF20F1E754A1B81CFEF7D8FA08B10F2065
:101C1000EAE79BF8000020B101283DD0022877D1E7
:101C20003BE0009808B1FF20DEE72188481C02F065
:101C3000ABFA2860286808B9FF20D5E72288511C34
:101C40002868FEF7B0FA2288B91C2868FEF792FAD5
:101C50000198801E2188401AA8F80000B8F80010EA
:101C6000481C02F091FA3060306820B9286802F010
:101C70006DF9FF20B8E7B8F80020511C3068FEF776
:101C800092FAB8F80020B4F800C0BB1C0CEB0301BA
:101C90003068FEF76FFA4FE000BF2088801C019982
:101CA000884201D9FF209FE72088C01C395C20882A
:101CB000801C385C41EA00210E9801800E9808B91A
:101CC000FF2091E72188481C02F05EFA286028680E
:101CD00008B9FF2088E72288511C2868FEF763FABC
:101CE0002288B91C2868FEF745FA0198001F218850
:101CF000401AA8F80000B8F80010481C02F044FA96
:101D00003060306828B9286802F020F9FF206BE7BE
:101D100010E0B8F80020511C3068FEF744FAB8F81B
:101D20000020B4F800C03B1D0CEB03013068FEF747
:101D300021FA01E0FF2057E700BF2B212846FEF7DC
:101D40004FFA20B923212846FEF74AFA08B1FF20AE
:101D50004AE7002048E70000246372657100000034
:101D600001464878022801D001207047887820B9C0
:101D7000C8780A2801D10020F7E70120F5E70146DD
:101D80004878022801D001207047887820B9C878A7
:101D90000A2801D10020F7E70120F5E7014648783D
:101DA000022801D001207047887820B9C8780A2815
:101DB00001D10020F7E70120F5E70246507802281C
:101DC00001D0012070479078B0EB112F05D1D07869
:101DD000CBB2984201D10020F4E70120F2E70000E5
:101DE000F8B50446FF2720780511012D01DB0E2DE3
:101DF00001DD3846F8BD032D24D1002000906A464D
:101E00000421601CFFF753FE2044461C0098022862
:101E100003D3207800F0010008B1FF20EAE77078D2
:101E2000317840EA0120801C0099884201D9FF20C6
:101E3000E0E706A1B01CFEF7C1F908B10F2700E0EA
:101E4000032700E02F463846D4E70000246372657C
:101E5000710000000146FF208A78A2B9CA78142ACE
:101E600011D10A7932B1012A05D0022A04D0802A80
:101E700006D103E000BF00BF002003E0012001E025
:101E8000022000BF00BF7047014601208A781AB9BE
:101E9000CA781E2A00D10020704700BFFEE77047B5
:101EA00070B5002100230F22C47804B3154C2468B8
:101EB00004F4E064C4F5E064210AC1F10403CA40FB
:101EC000447804FA03F184781440214309010E4C4C
:101ED0000678A155047804F01F050124AC4005786C
:101EE0006D11AD0005F1E025C5F8004109E0047869
:101EF00004F01F050124AC40044D0678761145F826
:101F0000264070BD0CED00E000E400E080E100E060
:101F100002490143024A1160704700000000FA05BF
:101F20000CED00E070B500240EE00021204600F02A
:101F3000F0F8002504E0002000F08DF9681CC5B21F
:101F4000802DF8DB601CC4B2082CEEDB70BD0000F5
:101F500008B50121082000F047FD14208DF803008A
:101F600003208DF802004FF48070ADF80000694640
:101F70000A48FFF773F94FF40070ADF800006946A6
:101F80000648FFF76BF9012211020448FFF7FEF93A
:101F9000012251020148FFF7F9F908BD000C014088
:101FA00070B50546002415E08020204100EA0502B6
:101FB0004FF400710E48FFF7E9F9012211020C48B5
:101FC000FFF7E4F900224FF480710948FFF7DEF9CA
:101FD000601CC4B2082CE7DB012211020448FFF7A1
:101FE000D5F900224FF480710148FFF7CFF970BD99
:101FF000000C014010B5012251020A48FFF7C6F952
:10200000012211020748FFF7C1F900224FF40071C5
:102010000448FFF7BBF900224FF480710148FFF735
:10202000B5F910BD000C014010B500224FF400714D
:102030000648FFF7ABF9012211020448FFF7A6F9A1
:10204000012251020148FFF7A1F910BD000C014027
:1020500070B5002406E0002500E06D1CB5F57A7F20
:10206000FBD3641CB4F57A7FF5D3FFF771FFAE2084
:1020700000F0E1F8D52000F0DEF8802000F0DBF879
:10208000A82000F0D8F83F2000F0D5F8D32000F0C9
:10209000D2F8002000F0CFF8402000F0CCF8A120CA
:1020A00000F0C9F8C82000F0C6F8DA2000F0C3F844
:1020B000122000F0C0F8812000F0BDF8CF2000F021
:1020C000BAF8D92000F0B7F8F12000F0B4F8DB201E
:1020D00000F0B1F8302000F0AEF8A42000F0ABF82A
:1020E000A62000F0A8F88D2000F0A5F8142000F03C
:1020F000A2F8AF2000F09FF8FFF714FF70BD10B5F5
:102100000246012000E050430B1EA1F10101FAD16B
:1021100010BD70B505460C4645F0B00000F08BF8D8
:10212000102141EA141000F086F804F00F0000F0CE
:1021300082F870BD2DE9F04105460E461746721E25
:10214000D206110E6A1E5206100EFFF7E2FF00249F
:1021500009E0A7F12001134A02EB0111085D00F02C
:102160007AF8601CC4B2082CF3DB721ED206110E82
:102170006A1E012303EB4202D0B2FFF7CAFF00241C
:102180000BE0A7F12001074A02EB011204F108015C
:10219000505C00F060F8601CC4B2082CF1DBBDE8B4
:1021A000F0810000535300082DE9F047814688462E
:1021B00015461E46002D06DB2B2241464846FFF7FA
:1021C000B9FF2F4605E02D2241464846FFF7B2FFF2
:1021D0006F42002417E0301B411E0A20FFF78FFFDB
:1021E000B7FBF0F00A21B0FBF1F201FB120000F1A5
:1021F000300A08EB0400401CC1B252464846FFF7C3
:1022000099FF601CC4B2B442E5DBBDE8F0872DE95C
:10221000F04107460E461546002407E02A5D3019B6
:10222000C1B23846FFF786FF601CC4B2285D0028A3
:10223000F4D1BDE8F08110B50446FFF7DBFE78204D
:10224000FFF7AEFE0020FFF7ABFE2046FFF7A8FE2B
:10225000FFF7EAFE10BD10B50446FFF7CBFE78206D
:10226000FFF79EFE4020FFF79BFE2046FFF798FEFB
:10227000FFF7DAFE10BD000030B58BB000200790EC
:10228000089009900A90012530A031A333A23CA107
:102290000090474801F014F807A80021029103912B
:1022A000CDE9041000912B0228A2019128A12BA0B6
:1022B000FFF70AF9002842D1089A91B20798FEF771
:1022C000A3FEFA20FEF73CFD0446002C33D0204646
:1022D000FFF786FD02282ED12046FFF751FC062885
:1022E00023D2DFE800F003090E13181D31A1304896
:1022F00000F0E6FF00251DE033A12D4800F0E0FFCF
:1023000018E038A12A4800F0DBFF13E03EA128487E
:1023100000F0D6FF0EE044A1254800F0D1FF09E00F
:102320004AA1234800F0CCFF04E053A1204800F06C
:10233000C7FF00BF00BF07A8FFF774F803E055A16F
:102340001B4800F0BDFF28460BB030BD36363600C6
:10235000D7DED5F2C3EEB1CFC9E80000BBF9D3DABE
:10236000CEEFC1AACDF8B5C4B3B5C4DACEC2B6C8F3
:10237000BFD8D6C6CFB5CDB3C9E8BCC600000000F3
:102380004F6E654E65745F4465764C696E6B0D0AE1
:1023900050524F49443A2025732C09415549463A39
:1023A0002025732C0944455649443A25730D0A00EB
:1023B00000380140546970733A09C1ACBDD3B3C948
:1023C000B9A60D0A000000005741524E3A09C1ACAF
:1023D000BDD3CAA7B0DCA3BAD0ADD2E9B4EDCEF379
:1023E0000D0A00005741524E3A09C1ACBDD3CAA7ED
:1023F000B0DCA3BAB7C7B7A8B5C4636C69656E741F
:1024000069640D0A000000005741524E3A09C1AC00
:10241000BDD3CAA7B0DCA3BAB7FECEF1C6F7CAA730
:10242000B0DC0D0A000000005741524E3A09C1AC21
:10243000BDD3CAA7B0DCA3BAD3C3BBA7C3FBBBF24F
:10244000C3DCC2EBB4EDCEF30D0A00005741524E8F
:102450003A09C1ACBDD3CAA7B0DCA3BAB7C7B7A805
:10246000C1B4BDD328B1C8C8E7746F6B656EB7C778
:10247000B7A8290D0A0000004552523A09C1ACBD67
:10248000D3CAA7B0DCA3BACEB4D6AAB4EDCEF30DAE
:102490000A0000005741524E3A094D5154545F50C2
:1024A00061636B6574436F6E6E656374204661692A
:1024B0006C65640D0A00000070B588B005460C46D6
:1024C0000020049005900690079023462A4610A10C
:1024D000174800F0F5FE2046FDF78CFE064604A8DE
:1024E0000121002200923346CDE9012103902246CA
:1024F00029460A20FFF738F938B9059A91B20498AD
:10250000FEF782FD04A8FEF78DFF08B070BD000045
:102510005075626C69736820546F7069633A202546
:10252000732C204D73673A2025730D0A00000000BC
:10253000003801402DE9F04F8FB0814600200B900C
:102540000C900D900E900A9009900890079000272B
:1025500006900026002482464846FFF741FC0746C5
:10256000F81E0D2876D2DFE800F01C8089A3BFE4B6
:10257000C8E4D6E4E4E4070007AB0AAA09A9484680
:10258000FFF7B8FA06465EB9BDF81C00009082A1BC
:102590008A48DDE9092300F093FE0BA8FEF742FF0D
:1025A000CAE0874806A907AA0AABCDE90021029034
:1025B00008AA09A94846FFF7F3FA0646002E53D1A8
:1025C000BDF81C000A99CDE90010BDF820307DA1AE
:1025D0007A48099A00F074FE0A9801F039FC8046A6
:1025E000B8F1000F08D101F00DFC83465A4684A1D2
:1025F000724800F065FE34E086A1404601F008FC18
:10260000054686A16D482A6A00F05AFE83A16B48F0
:102610002A6900F055FE86A12869FDF7CFFD70B14B
:1026200084A1404601F0F4FB0546686918B100201A
:102630008249086015E001208049086011E07DA111
:10264000404601F0E5FB0546686920B101207C4960
:10265000087003E06DE00020794908700020794996
:102660000870404601F0A2FB66E04846FFF778FBA1
:1026700018B975A1514800F023FE5DE04846FFF708
:102680008DFBA0B978A14D4800F01AFE0BA90A20D5
:10269000FFF76AF958B97AA1484800F011FE0C9A80
:1026A00091B20B98FEF7B0FC0BA8FEF7BBFE43E01F
:1026B000434801884846FFF780FBA0B976A13F4810
:1026C00000F0FEFD0BA90A20FFF72AF958B978A1FE
:1026D0003A4800F0F5FD0C9A91B20B98FEF794FC85
:1026E0000BA8FEF79FFE27E04846FFF748FB18B906
:1026F00076A1324800F0E4FD1EE04846FFF7AAFB51
:1027000020B978A12D4800F0DBFD03E07CA12B4827
:1027100000F0D6FD10E04846FFF7B6FB20B97FA1D8
:10272000264800F0CDFD03E083A1244800F0C8FD59
:1027300002E04FF0FF3600BF00BFFEF7F3FA701C57
:1027400010B90FB0BDE8F08F7D210A98FDF748FD64
:102750000446A4B1701C90B1641C06E014F8012B6F
:1027600050460AF1010A03A90A542078302802DBF6
:1027700020783928F2DD03A8FDF766FD82460F2F89
:1027800001D0032F05D1099801F0E0FB0A9801F070
:10279000DDFB00BFD5E70000636D6469643A202566
:1027A000732C207265713A2025732C207265715F3D
:1027B0006C656E3A2025640D0A0000000038014067
:1027C0002E080020746F7069633A2025732C2074E2
:1027D0006F7069635F6C656E3A2025642C207061B0
:1027E000796C6F61643A2025732C207061796C6F6D
:1027F00061645F6C656E3A2025640D0A000000007C
:102800004572726F72206265666F72653A205B2551
:10281000735D0A0074617267657400006A736F6E9D
:102820005F76616C75653A205B25735D0A00000078
:102830004C45440076616C7565000000B48121420E
:102840000008002001080020546970733A094D51B6
:102850005454205075626C6973682053656E64200F
:102860004F4B0D0A00000000546970733A0952651D
:1028700076205075626C6973685265630D0A0000BA
:10288000546970733A0953656E64205075626C69BF
:10289000736852656C0D0A00546970733A09526589
:1028A00076205075626C69736852656C0D0A000081
:1028B000546970733A0953656E64205075626C698F
:1028C0007368436F6D700D0A0000000054697073E7
:1028D0003A09526576205075626C697368436F6D72
:1028E000700D0A00546970733A094D5154542053C5
:1028F0007562736372696265204F4B0D0A000000B8
:10290000546970733A094D5154542053756273637E
:1029100072696265204572720D0A00005469707315
:102920003A094D51545420556E5375627363726960
:102930006265204F4B0D0A00546970733A094D517E
:10294000545420556E5375627363726962652045F5
:1029500072720D0A0000000070B586B004460D4684
:1029600000260020029003900490059007E054F8A0
:1029700026200DA1124800F0A3FC701CC6B2AE4286
:10298000F5DB02A82B462246002100901420FFF719
:102990000FF838B9039A91B20298FEF735FB02A8F6
:1029A000FEF740FD06B070BD5375627363726962D5
:1029B0006520546F7069633A2025730D0A0000008A
:1029C000003801407047000029B1064AD26902432D
:1029D000044BDA6104E0034AD2698243014BDA61B5
:1029E000704700000010024029B1064A9269024374
:1029F000044B9A6104E0034A92698243014B9A6155
:102A0000704700000010024030B500210022002471
:102A100000232D4D6D6805F00C0121B1042905D06E
:102A2000082923D105E0294D056022E0274D0560E6
:102A30001FE0254D6D6805F47012234D6D6805F497
:102A40008034022505EB92421CB9214D55430560A7
:102A50000BE01D4D6D6805F400351DB11C4D55434F
:102A6000056002E0194D5543056002E0174D056011
:102A700000BF00BF144D6D6805F0F0010909154D48
:102A80006B5C0568DD4045600F4D6D6805F4E061E5
:102A9000090A104D6B5C4568DD4085600A4D6D6824
:102AA00005F46051C90A0B4D6B5C4568DD40C5609B
:102AB000054D6D6805F44041890B074D6B5CC56899
:102AC000B5FBF3F5056130BD0010024000127A003D
:102AD00000093D000C0800201C080020704710B5BC
:102AE00000F002F810BD00000CB50020019000902D
:102AF0003348006840F480303149086000BF3048F6
:102B0000006800F4003000900198401C019000988B
:102B100018B90198B0F5A06FF1D12948006800F408
:102B2000003010B10120009001E0002000900098DA
:102B3000012843D12348006840F010002149086073
:102B40000846006820F0030008600846006840F06E
:102B5000020008601A484068194948600846406801
:102B600048600846406840F4806048600846406815
:102B700020F47C1048600846406840F4E810486043
:102B80000846006840F08070086000BF0C4800688C
:102B900000F000700028F9D00948406820F00300D8
:102BA000074948600846406840F00200486000BF9E
:102BB0000348406800F00C000828F9D10CBD000063
:102BC00000100240002002407047000010B513487A
:102BD000006840F00100114908600846406810494B
:102BE00008400E494860084600680E4908400B49F5
:102BF00008600846006820F48020086008464068A5
:102C000020F4FE0048604FF41F008860FFF767FF64
:102C10004FF000600449086010BD00000010024041
:102C20000000FFF8FFFFF6FE08ED00E010B50121FF
:102C3000880700F0D6F828B30121880700F0C2F811
:102C400011A201210846FFF7E2FA11A20921012091
:102C5000FFF7DDFA0FA201210220FFF7D8FA0FA239
:102C600009210220FFF7D3FA02230D48027806213A
:102C70000120FFF799FA02230A4802780621184634
:102C8000FFF792FA10BD000054656D703A00000025
:102C90004300000048756D693A00000025000000FF
:102CA00002080020030800207FB505460C460121DC
:102CB0000846FFF789FEADF80850ADF80440002043
:102CC000ADF80A00ADF8060001A94FF0804000F011
:102CD000A3F801221146900700F094F81C208DF80B
:102CE000000000208DF8010003208DF80200012073
:102CF0008DF803006846FFF7D3F80121880700F03C
:102D000064F87FBD10B50121124800F06AF8F8B1EF
:102D10000121104800F056F80F48007890B10F4894
:102D2000006808B9012000E000200C4908600C4848
:102D3000D0F8B00108B9012000E0002007490839A7
:102D4000086005E00120054908600549C1F8B001A7
:102D500010BD00000004004000080020B88121429E
:102D6000008021427FB505460C4601210220FFF775
:102D70002BFEADF80850ADF804400020ADF80A0075
:102D8000ADF8060001A90E4800F046F801221146F0
:102D90000B4800F037F81D208DF8000000208DF85A
:102DA000010003208DF8020001208DF80300684621
:102DB000FFF776F80121024800F007F87FBD000018
:102DC00000040040CA430282704721B1028842F0E9
:102DD0000102028004E002884FF6FE731A4002806E
:102DE000704730B50246002000230024158A05EA0A
:102DF0000103958905EA010413B10CB1012000E03B
:102E0000002030BD1AB183890B43838102E083899E
:102E10008B43838170470000002202881D4B98423B
:102E20000ED01D4B98420BD0B0F1804F08D01B4BF9
:102E3000984205D01A4B984202D01A4B984204D1BE
:102E40004FF68F731A404B881A43174B984207D09E
:102E5000164B984204D04FF6FF431A40CB881A43D2
:102E600002808B8883850B8803850A4B98420BD0A0
:102E7000094B984208D00E4B984205D00D4B984212
:102E800002D00D4B984201D10B7A03860123838235
:102E900070470000002C0140003401400004004055
:102EA00000080040000C00400010004000140040EA
:102EB00000400140004401400048014010B540F28C
:102EC00025511D4800F086F810B31B4800F03EF96C
:102ED000C4B21A48008800F40040C8B917480088F6
:102EE00000F4804060B10A2C03D000201349088010
:102EF00020E01248008840F400401049088019E0A2
:102F00000D2C06D10D48008840F480400B49088004
:102F100010E00A480088C0F30D0009490C54074826
:102F20000088401C0549088008460088C72801DD44
:102F30000020088010BD0000003801402808002053
:102F40004809002010B540F225510E4800F042F823
:102F5000B0B10D480088802802D300200A490880BB
:102F60000848001D0088C1B2074802880088401C3C
:102F7000054B1880054881542021024800F008F8CC
:102F800010BD0000004400402A080020100A002064
:102F900001F40072B2F5007F00D100BFCA43028085
:102FA000704721B1828942F40052828104E0828913
:102FB0004DF6FF731A408281704702460020B1F53A
:102FC000007F00D100BF13880B400BB1012000E04F
:102FD0000020704770B50246002400230025002021
:102FE00040F66A16B14200D100BFC1F3421501F0AC
:102FF0001F03012606FA03F3012D02D196893340FF
:1030000006E0022D02D1168A334001E0968A334051
:103010000C12012606FA04F41688344013B10CB1E0
:10302000012000E0002070BDF0B50346002400261A
:103030000025002040F66A17B94200D100BF1846AB
:10304000C1F3421401F01F06012707FA06F5012C0F
:1030500001D10C3004E0022C01D1103000E014301A
:103060001AB107682F43076002E00768AF430760A3
:10307000F0BD00002DE9F04786B005460E4600245D
:10308000A24600BFA1460027B08900B100BF2F466D
:103090002C8A4CF6FF700440F08804432C82AC89E3
:1030A0004EF6F3100440B088318908437189084313
:1030B0000443AC81AC8A4FF6FF400440B08904431E
:1030C000AC8201A8FFF7A0FC1F48874202D1DDF8BF
:1030D00010A001E0DDF80CA0A88900F4004040B188
:1030E0000AEBCA0000EB0A1031684900B0FBF1F8A6
:1030F00007E00AEBCA0000EB0A1031688900B0FB58
:10310000F1F86420B8FBF0F004012009642101FB10
:103110001089A88900F4004040B1322000EBC900BA
:10312000B0FBF1F000F00700044308E0322000EBB0
:1031300009106421B0FBF1F000F00F0004432C8172
:1031400006B0BDE8F08700000038014001468888DD
:10315000C0F308007047C1F308028280704700BFC7
:10316000FEE7000010B586B0044601210420FFF7F9
:103170003BFC01218803FFF737FC18208DF817006E
:103180004FF40070ADF8140003208DF8160005A967
:103190001E48FEF763F804208DF817000002ADF812
:1031A000140003208DF8160005A91848FEF756F8FC
:1031B00001940020ADF810000C20ADF80E000020A6
:1031C000ADF80C00ADF80A00ADF8080001A91048F0
:1031D000FFF750FF01210E48FFF7E3FE012240F206
:1031E00025510B48FFF720FF25208DF80000012016
:1031F0008DF8030000208DF8010002208DF80200F8
:103200006846FEF74DFE06B010BD00000008014004
:103210000038014010B586B0044601210420FFF7B4
:10322000E3FB01214804FFF7CFFB18208DF81700BE
:103230000420ADF8140003208DF8160005A91E48DF
:10324000FEF70CF804208DF817000820ADF81400E4
:1032500003208DF8160005A91748FDF7FFFF01941C
:103260000020ADF810000C20ADF80E000020ADF8E5
:103270000C00ADF80A00ADF8080001A90F48FFF7EF
:10328000F9FE01210D48FFF78CFE012240F2255185
:103290000A48FFF7C9FE26208DF8000001208DF8AE
:1032A000030000208DF801008DF802006846FEF74B
:1032B000F7FD06B010BD00000008014000440040CA
:1032C0000FB430B5CBB0054601AC50A800904FF418
:1032D000947101A8009B4F9A00F044F800200090E0
:1032E0000BE014F8011B2846FFF735FF00BF402113
:1032F0002846FFF762FE0028F9D020780028F0D198
:103300004BB030BC5DF814FB2DE9F04107460C468C
:10331000154600260DE014F8011B3846FFF71BFF89
:1033200000BF40213846FFF748FE0028F9D0701C46
:1033300086B2AE42EFDBBDE8F08100000FB4084B6F
:1033400010B504A902AA039800F088F9044602A95E
:10335000002000F025FD204610BC5DF814FB0000A5
:10336000A13D00087CB5044600201D4616460029F4
:103370000BD0491ECDE90041044B6A462946304630
:1033800000F06CF9009A002111707CBD8B3D0008A3
:10339000490050EAC12018BF04204A0D18BF40F070
:1033A000010040F2FF72B2EB515F08BF40F0020033
:1033B000012808BF052070470048704744080020D6
:1033C0002DE9F0414F1E00EBC7010446D1E9000191
:1033D00015461E4637F006020DD02A463346FCF746
:1033E000E7FF7F1E04EBC703D3E90023FCF739FF97
:1033F00037F00602F1D1022F25D0042F13D0062F6B
:1034000018BFBDE8F0812A463346FCF7D1FFD4E966
:103410000A23FCF726FF2A463346FCF7C9FFD4E906
:103420000823FCF71EFF2A463346FCF7C1FFD4E908
:103430000623FCF716FF2A463346FCF7B9FFD4E90A
:103440000423FCF70EFF2A463346FCF7B1FFD4E90C
:103450000223FCF706FF2A463346FCF7A9FFD4E90E
:103460000023BDE8F041FCF7FCBE0000002213463B
:1034700010460149FDF763B90000F03FFCF7F1BECB
:103480000022134610461146FDF759B940F20132A9
:1034900000204FF0E041FDF7C1B90000024A0020D2
:1034A0001107FDF7BBB9000001FDFFFF02E008C8EE
:1034B000121F08C1002AFAD170477047002001E0AE
:1034C00001C1121F002AFBD17047000001490860AA
:1034D00070470000440800202DE9FF5F82B0002102
:1034E000DDE90430020DDDF840B0034318D044F6A6
:1034F0001050A2F2FF3242431514119801281FD038
:10350000A5EB0B00401C5FEA000A4FF000064E4F8F
:10351000DFF83891B046504615D5CAF1000413E0E3
:10352000119801244AA3012801D16FEA0B010298E6
:10353000119AC0E90031C0E9024206B0BDE8F09F2F
:10354000CBF10000DFE704460021404A491842EB76
:103550000450CDE9001012E0E00707D032463B46A8
:1035600040464946FCF724FF8046894632463B46A2
:1035700010461946FCF71CFF06460F466410002C47
:10358000EAD1DDE90401DDE90023BAF1000F06DA32
:10359000FCF70EFF42464B46FCF70AFF05E0FDF73D
:1035A000CEF842464B46FDF7CAF804460E460022C6
:1035B000284BFCF79FFF03D84FF0FF30014607E090
:1035C0000022254B20463146FCF74BFEFDF73DF926
:1035D000102409E0002C0ADB0A220023FCF7B8FFC4
:1035E000039B30321A55641E50EA0102F2D1641C6A
:1035F000039AC4F111031444119A012A03D0012241
:1036000008430DD10AE0084304D000204FF0110B0D
:10361000119072E7A3EB0B056D1E0DE05B4504DD19
:103620004FF0000205F1010504E003DA4FF000025B
:10363000A5F10105002AECD002981199C0E90231E8
:10364000C0E9004579E70000000014400000F03FA9
:10365000300000000000F0430000E03F2DE9FF4F84
:1036600095B09B468946064600250FE2252877D16E
:1036700000242746F84A0121059400E0044316F887
:10368000013F203B01FA03F01042F7D130782A289D
:1036900011D06FF02F033078A0F13002092A16D82C
:1036A000059A44F0020402EB820203EB420210444A
:1036B000761C0590EFE759F8042B0592002A03DAEF
:1036C000504244F40054059044F00204761C3078D3
:1036D0002E2816D116F8010F44F004042A280DD024
:1036E0006FF02F023078A0F13003092B09D807EBD7
:1036F000870302EB4303C718761CF3E759F8047BF2
:10370000761C30786C280FD006DC4C2817D068283F
:103710000DD06A2814D104E0742810D07A280FD173
:103720000DE044F400140AE044F4801401E044F491
:1037300040147278824202D104F58014761C761C03
:10374000307866280BD013DC582877D009DC0028A5
:1037500075D04528F6D04628F4D047281AD19DE1E7
:1037600018E0632835D0642879D0652812D195E116
:10377000702873D008DC6728F1D069286FD06E28D4
:103780000DD06F2806D1B5E073282CD0752875D0E0
:10379000782874D05A46179990476D1C75E1C4F388
:1037A0000250022809D003280DD0D9F800100428AF
:1037B0000DD00D6009F1040967E1D9F80010EA178E
:1037C000C1E90052F6E7D9F800100D80F2E70D705C
:1037D000F0E719F8041B8DF8001000208DF80100A7
:1037E000EA46012003E059F804AB4FF0FF306107CF
:1037F0004FF0000102D40DE008F101018846B94202
:103800000FDA8045F8DB1AF808100029F4D108E037
:1038100008F1010188468142FADB1AF808100029F4
:10382000F6D105985B46A0EB080721463846179A63
:1038300000F094FA284400EB080507E04DE029E188
:103840000DE01AF8010B5A4617999047B8F1010894
:10385000F7D25B4621463846179A13E142E00A2226
:103860000092C4F302524FF0000A022A08D059F81D
:1038700004CB032A4FEAEC710AD00DE029E02AE0DC
:1038800009F1070121F00702F2E802C1914609E0BF
:103890000FFA8CFC4FEAEC71042A03D14FFA8CFC2E
:1038A0004FEAEC71002907DA0A460021DCF1000C2E
:1038B00061EB02012D2202E0220504D52B228DF8B6
:1038C0000420012203E0E20701D02022F7E790461E
:1038D00059E00A2102E010220DE010214FF0000A09
:1038E00000910BE010224FF0000A44F00404082776
:1038F000009203E008224FF0000A0092C4F3025243
:10390000022A05D059F804CB0021032A08D009E087
:1039100009F1070121F00702F2E802C1914605E032
:103920001FFA8CFC042A01D10CF0FF0C4FF00008A8
:10393000220728D5702806D0009B83F0100353EA95
:103940000A0305D00EE040228DF80420012208E091
:103950005CEA010206D030228DF804208DF80500C3
:1039600002229046009B83F0080353EA0A030AD11F
:103970005CEA010201D1620705D530228DF80420EE
:103980004FF001087F1E582804D034A003900EA8E1
:1039900002900DE036A0F9E753466046009AFCF726
:1039A000D7FD84460398825C0298401E0290027004
:1039B0005CEA0100F0D1029806A9081A00F1200A79
:1039C000600702D524F4803400E00127574502DD6A
:1039D000A7EB0A0000E0002000EB0A010090059828
:1039E0004144401A0590E00306D45B462146179AED
:1039F000059800F0B3F90544002706E001A85A46EF
:103A0000C05D179990476D1C7F1C4745F6DBE003AE
:103A10000CD55B462146179A059800F09FF905449E
:103A200004E030205A46179990476D1C0099481EB3
:103A300000900029F5DC08E0029802995A460078C7
:103A4000491C0291179990476D1CBAF10001AAF127
:103A5000010AF1DC65E10000092801003031323350
:103A600034353637383961626364656600000000BA
:103A700030313233343536373839414243444546A4
:103A80000000000000F058F90544761C307800284A
:103A90007FF4ECAD19B02846BDE8F08F620700D482
:103AA000062709F1070222F0070CFCE80223E14691
:103AB00003F000485FEA080C02D00FF2702C0DE012
:103AC0005FEA045C02D50FF2682C07E05FEAC47C71
:103AD00002D00FF2602C01E0AFF2700C4FF0FF3813
:103AE00023F00043CDF850C065280CD006DC4528F3
:103AF00009D046281DD047283DD13DE0662818D082
:103B000067287ED138E00021112F01DB112000E071
:103B1000781CCDE9000106A90EA8FFF7DDFCDDE960
:103B20000F010E9A03910021009207F1010A0491FE
:103B30004DE04FF000400097CDE9011006A90EA816
:103B4000FFF7CAFCDDE90F0203920E9B11990022D8
:103B5000DDF80CA00093049211B9791C00EB010A66
:103B6000B7EB0A0004D4C0F1FF3007F1010A04905A
:103B7000AAEB0700019044E0012F00DA01270021A1
:103B8000112F01DD112000E03846CDE9000106A922
:103B90000EA8FFF7A1FCDDE90F010E9A03910021A9
:103BA00004910092BA4621070CD40399514500DADA
:103BB0008A46BAF1010F05DD009AAAF10101515CB4
:103BC000302908D0B84202DA10F1040F06DA0121D8
:103BD000CDE9011015E0AAF10101E9E7002805DCB3
:103BE000049901440491AAEB000102E0411C5145F3
:103BF00000DD8A460499401A401C01904FF00040B5
:103C00000290200704D40198504501DBCDF80480D0
:103C100000208DF84F0002980DF14F07B0F1004FD2
:103C200025D02B200E9002984FF0020800280CDAC5
:103C3000404202902D200E9007E00A210298FCF7E6
:103C400071FC3031029007F8011DB8F10001A8F1B4
:103C50000108F2DC02980028EFD1791E0E98087056
:103C6000307800F0200040F0450007F8020D12A85F
:103C7000C01B00F107081498007800B1012000EB88
:103C80000A01019801EBE07105984144401A401E79
:103C90000590E00306D45B462146179A059800F08C
:103CA0005DF805441498007818B15A461799904762
:103CB0006D1CE00324D55B462146179A059800F059
:103CC0004DF805441CE00498002807DBDDE90301FA
:103CD000884203DD0098405C179901E01799302075
:103CE0005A469047049805F10105401C049001983C
:103CF000401E019004D12E205A46179990476D1C02
:103D0000BAF10001AAF1010ADDDC05E017F8010BA8
:103D10005A46179990476D1CB8F10001A8F10108A7
:103D2000F4DC5B462146179A0598ABE62D000000AF
:103D30002B000000200000002DE9F0410446002582
:103D40001E461746880404D405E039462020B047B3
:103D50006D1C641EF9D52846BDE8F0812DE9F041BF
:103D6000044600251E469046C80301D5302700E0D2
:103D70002027880404D505E041463846B0476D1C2D
:103D8000641EF9D52846BDE8F0814A68002A06D0AD
:103D90000A68531C0B6010704868401E48607047EA
:103DA0000A68531C0B6010707047000070B5044621
:103DB00022E02568A08900F4807020B9A06810B1C5
:103DC000A068FFF7F3FFA08900F4807028B920698C
:103DD00018B10B49206909688847A08900F4007070
:103DE00028B9206A18B10649206A09688847204620
:103DF0000349096888472C46002CDAD170BD0000C1
:103E00003808002001480068704700003008002092
:103E100070B505460E46AC6800E024682CB131460A
:103E2000206A00F04FF80028F7D1204670BD00004E
:103E300010B5282005490968884704461CB1282187
:103E40002046FCF7B0F9204610BD000034080020E1
:103E500010B5044600221146204600F001F810BDBE
:103E60002DE9F04780460D4616460024FFF7E0FF97
:103E700007460020124908600FB9BDE8F0874046A8
:103E800001F030FA81464946384600F0E1FC04462C
:103E900024B93846FFF78AFF0020EEE766B12046D6
:103EA00001F020FA0446207830B13846FFF77EFF53
:103EB000034804600020E0E705B12C603846DCE7E9
:103EC0003008002070B504460D462CB9AC4201D034
:103ED000012070BD0020FCE70DB90120F9E705E0E5
:103EE000207808B90020F4E7641C6D1C2078FCF7EA
:103EF0003BF906462878FCF737F98642F0D020785F
:103F0000FCF732F906462878FCF72EF9301AE0E77C
:103F100070B50446002600254FF4FA7094FBF0F0CB
:103F2000C6B24FF4FA7094FBF0F100FB114085B279
:103F300005E04FF4FA70FCF7B5FE701EC6B2002E15
:103F4000F7D115B12846FCF7ADFE70BD10B50028BD
:103F500021D0114B0022001F196803E0814203D8D1
:103F60000A4649680029F9D152B11368841A9C4263
:103F700004D1006818441060104602E0506000E070
:103F8000186039B102680B1A934203D10B681A44C6
:103F900002604968416010BD3C0800201CB5002546
:103FA0000024FCF7A3FE4FF4A060FDF7B1FFFDF77E
:103FB00011FAFDF7F3F9FDF799F8FCF753FDFCF75B
:103FC000C7FD4FF4E130FFF7CDF84FF4E130FFF7D4
:103FD00021F9FEF73DF841F61F4141F28730FEF727
:103FE00063FE41F61F4140F6B730FEF7BBFEFCF71B
:103FF000CFFE3FA14348FFF763F903E04FF4FA70A7
:10400000FFF786FFFEF738F90028F7D13E49086030
:10401000FA20FFF77DFF01203C49C1F8B0010121E2
:104020003B48FEF799FC61E0282095FBF0F100FB8E
:10403000115038BB37493848FCF7CFFD3548037875
:104040003548027835A12F48FFF73AF9394800780A
:104050000A280ED130480078232807DA2D48007846
:10406000502803DA00203449087002E00120324968
:104070000870304800780A2804DA2E480078401C7E
:104080002C490870681C80B20546C82823DB4FF411
:1040900000512A48FDF76DF92949087029A11948EE
:1040A000FFF70EF9244800782549097809B901215C
:1040B00000E00021CDE90010164803781648027888
:1040C00025A12F48FFF73AF92D492E48FEF7F4F9BC
:1040D0000025FCF727FE0320FCF732FE044614B14E
:1040E0002046FEF727FA0A20FFF712FF9CE70000A0
:1040F00020486172647761726520696E6974204F2F
:104100004B0D0A0000380140B0812142008021425D
:10411000080800200308002002080020CEC2B6C80C
:10412000A3BA2564A1E620CAAAB6C8A3BA25642505
:10413000250000000108002000080020000C0140BC
:10414000040800204F6E654E65745F5075626C699F
:1041500073680D0A000000007B2254656D70223ADE
:1041600025642C2248756D223A25642C224C656406
:10417000223A25642C2242656570223A25647D002E
:104180004808002042530008F0B50B30154D20F0D0
:1041900007010024144A0FE003688B420BD38B42C3
:1041A00005D95E1A43184768C3E9006700E0436811
:1041B000136002C004E0021D10680028ECD1204604
:1041C000002802D1286808B10020F0BD064A07483F
:1041D0001060074A121A22F00702C0E900240120E9
:1041E0002860D7E7400800203C080020940A0020FF
:1041F000900C00202DE9F04705460C4620785B28FE
:1042000004D0264804600020BDE8F0870520E8605F
:10421000601C01F067F8044620785D2801D1601C1D
:10422000F2E7FFF705FE0646A860A86808B9002077
:10423000EAE7204601F056F880464146304600F055
:1042400007FB074601F04EF804460CB90020DBE7F7
:1042500017E0FFF7EDFD071E00D1D5E737607E6060
:104260003E46601C01F03EF881464946304600F06B
:10427000EFFA804601F036F804460CB90020C3E797
:1042800000BF20782C28E4D020785D2801D1601C64
:10429000BAE7024804600020B6E7000030080020BA
:1042A000014600220878302806DB0878392803DC2C
:1042B00008783038024415E00878412806DB087891
:1042C000462803DC0878373802440BE00878612878
:1042D00006DB0878662803DC08785738024401E0DA
:1042E000002070471201491C0878302806DB087846
:1042F000392803DC08783038024415E00878412872
:1043000006DB0878462803DC0878373802440BE0DF
:104310000878612806DB0878662803DC08785738B7
:10432000024401E00020DCE71201491C0878302833
:1043300006DB0878392803DC08783038024415E0B9
:104340000878412806DB0878462803DC08783738E7
:1043500002440BE00878612806DB0878662803DC55
:1043600008785738024401E00020BAE71201491CDE
:104370000878302806DB0878392803DC08783038DC
:10438000024415E00878412806DB0878462803DC5B
:104390000878373802440BE00878612806DB087893
:1043A000662803DC08785738024401E0002098E7CB
:1043B000104696E72DE9F04F8BB083468A460020E1
:1043C000044605460026674F002188468946099025
:1043D000012008909AF800002D2802D1624F0AF1BE
:1043E000010A9AF80000302801D10AF1010A9AF86E
:1043F0000000312822DB9AF8000039281EDC00BFBB
:104400001AF8011BA1F13000FCF744F80022574BC9
:10441000CDE9060120462946FBF7CAFFCDE9040194
:10442000DDE90623FBF71DFF04460D469AF8000060
:10443000302803DB9AF800003928E1DD9AF8000003
:104440002E2830D19AF8010030282CDB9AF8010090
:10445000392828DC0AF1010A00BF1AF8011BA1F172
:104460003000FCF717F80022404BCDE9060120464A
:104470002946FBF79DFFCDE90401DDE90623FBF7A3
:10448000F0FE04460D460022364B40464946FBF7F7
:1044900089FF804689469AF80000302803DB9AF8A5
:1044A00000003928D9DD9AF80000652803D09AF871
:1044B0000000452823D10AF1010A9AF800002B28B0
:1044C00002D10AF1010A08E09AF800002D2804D16F
:1044D0004FF0FF3008900AF1010A08E01AF8010BCA
:1044E0003038099901EB810100EB410009909AF8FD
:1044F0000000302803DB9AF800003928EEDDDDE902
:10450000082101FB02F0FBF7C5FF42464B46CDE90F
:104510000001FBF7A6FE02460B46CDE90201002092
:10452000124900F0F3F922462B46CDE90601304648
:104530003946FBF73DFFCDE90401DDE90623FBF732
:1045400037FF04460D46CBE9064520462946FBF7D2
:10455000B2FFCBF814000320CBF80C0050460BB090
:10456000BDE8F08F0000F03F0000F0BF00002440E5
:104570002DE9F04706460C4620787B2804D04048B9
:1045800004600020BDE8F0870620F060601C00F0A9
:10459000A9FE044620787D2801D1601CF2E7FFF7D0
:1045A00047FC0546B060B06808B90020EAE720463D
:1045B00000F098FE80464146284600F063F8074622
:1045C00000F090FE04460CB90020DBE72869286261
:1045D0000020286120783A2803D029480460002070
:1045E000D0E7601C00F07EFE80464146284600F081
:1045F0002FF9074600F076FE04460CB90020C1E70B
:1046000031E0FFF715FC071E00D1BBE72F607D608E
:104610003D46601C00F066FE81464946284600F093
:1046200031F8804600F05EFE04460CB90020A9E790
:10463000286928620020286120783A2803D0104891
:10464000046000209EE7601C00F04CFE8146494655
:10465000284600F0FDF8804600F044FE04460CB900
:1046600000208FE700BF20782C28CAD020787D2832
:1046700001D1601C86E702480460002082E7000048
:10468000300800202DE9F05F8346884608F10104D8
:10469000002798F80000222805D06A48C0F800805A
:1046A0000020BDE8F09F04E014F8011B5C2900D154
:1046B000641C2078222804D0207810B1781C071EB2
:1046C000F2D1781C6049096888478146B9F1000F2A
:1046D00001D10020E5E708F101044D469EE0207875
:1046E0005C2804D014F8010B05F8010B96E0641C5B
:1046F0002078722818D006DC622809D066280BD0F2
:104700006E287DD10CE0742812D07528F9D113E001
:10471000082005F8010B7FE00C2005F8010B7BE079
:104720000A2005F8010B77E00D2005F8010B73E076
:10473000092005F8010B6FE0601CFFF7B1FD06468C
:10474000241DB6F55C4F02D3B6F5604F00D306B911
:1047500062E0B6F5584F1CD3B6F55C4F19D26078BD
:104760005C2802D1A078752800D055E0E01CFFF746
:1047700097FD8246A41DBAF55C4F02D3BAF5604F8F
:1047800000D349E0C6F30901504661F39F2000F5CC
:1047900080360427802E01D2012708E0B6F5006F8D
:1047A00001D2022703E0B6F5803F00D203273D4443
:1047B000012F20D0022F15D0032F0AD0042F24D18F
:1047C00006F0BF0040F08001681E05460170B60982
:1047D00000BF06F0BF0040F08001681E0546017072
:1047E000B60900BF06F0BF0040F08001681E054614
:1047F0000170B60900BF1548C05D3043C1B200E08A
:1048000006E0681E0546017000BF00BF3D4403E09E
:10481000207805F8010B00BF00BF641C2078222817
:1048200003D0207800287FF45AAF00202870207829
:10483000222800D1641CCBF810900420CBF80C0087
:1048400020462EE730080020340800204359000895
:1048500070B505460C460CB9002070BD042224A199
:104860002046FBF7E2FC18B90220E860201DF4E7BF
:10487000052221A12046FBF7D8FC18B90020E860EA
:10488000601DEAE704221EA12046FBF7CEFC20B9FA
:104890000120E8606861201DDFE72078222804D12C
:1048A00021462846FFF7EEFED7E720782D2805D0D1
:1048B0002078302807DB2078392804DC2146284678
:1048C000FFF778FDC9E720785B2804D12146284608
:1048D000FFF790FCC1E720787B2804D121462846C9
:1048E000FFF746FEB9E7084804600020B5E700007E
:1048F0006E756C6C0000000066616C7365000000F2
:104900007472756500000000300800202DE9F04D3C
:104910001D460C4698B0174621F0004123F0004395
:10492000002814BF4FF0010C4FF0000C0CEB440CAE
:10493000FE4A0CEB02064FEA620C66452BD33E00A2
:1049400018BF012606EB45061644F94A964222D3C3
:10495000F84A53EA070C02D0944205D148B918B07E
:1049600000201146BDE8F08D002808BF4FF0000C74
:1049700001D04FF0010C0CEB440212F5001F0AD8D5
:10498000002F14BF4FF0010C4FF0000C0CEB450250
:1049900012F5001F07D918B03A462B462146BDE84C
:1049A000F04DFEF76BBD0022DFF88CA3002CB8BFE2
:1049B000534526DADFF884C36345A8BF022220DA14
:1049C000DFF870C39C451CDCDFF874C30CEB235C80
:1049D000BCF1140F08DDCCF1340627FA06FC0CFA02
:1049E00006F6BE420DD108E05FB9CCF1140623FAF9
:1049F00006FC0CFA06F69E4203D10CF00102C2F14D
:104A0000020251EA000C19D1002D17DA002C18BF50
:104A1000022A01D0012A07D00220FEF757FD18B064
:104A2000BDE8F04DFEF722BD0220FEF74FFDFEF778
:104A30001DFD18B081F00041BDE8F08DB7F1000C0C
:104A40006CD1534525D104F1804212F5801201BF8B
:104A500000280020B74918B008BFBDE8F08DB54860
:104A6000884207DC002DA1BF6046294618B0BDE88A
:104A7000F08D07E0281E05DA80F0004118B060468E
:104A8000BDE8F08DAF497944D1E9000118B0BDE827
:104A9000F08DDFF8A0C2634525D1002D1FDA19B1D2
:104AA000514512D1D8B909E0002840F0EC82A24A61
:104AB000214618B062F31E01BDE8F08D00202146AA
:104AC00018B060F31E01BDE8F08D08DA18B0234677
:104AD000BDE8F04D024600206146FBF730BE18B03D
:104AE0002146BDE8F08D514518DAB5F1804F0DD063
:104AF000A5F1005CBCF1FF5C10D1B4F1000C0DDB42
:104B000018B06146BDE8F04D00F0F5BB234618B083
:104B10000246BDE8F04D1946FBF74ABC060024F0FA
:104B2000004C3BD1D9B1514533D1002C06DD002DCD
:104B3000A1BF0020514618B0BDE8F08D002C01DD6A
:104B4000002D1BDB002C13DA002D11DB012A4FF0A6
:104B5000000014BF78497C4918B0BDE8F08D022AE6
:104B600018BF002C0AD0012A08D1002C06DA0AE06E
:104B7000002CB8BF002D11DA012A04D0002018B093
:104B80000146BDE8F08D18B000204FF00041BDE8AF
:104B9000F08DA1F14050B0F17F601AD0012000EB00
:104BA000E47050EA020421D0624C521E4FF0000B18
:104BB000104304BF4FF0000B644C654883427CDD1A
:104BC000644A654893421FDD884217DB002D25DBD0
:104BD00037E0002C00DA4AB1022A0CBF01204FF066
:104BE000FF3018B0BDE8F04DFBF754BC0120FEF7D4
:104BF0006DFC18B0BDE8F04DFEF742BC4D4A8A424C
:104C000002DC002D0ADC1CE0814202DA002D18DAF9
:104C100004E0484B994220DD002D12DD0220FEF712
:104C200055FCFEF733FC05460E4600225346584617
:104C30002146FBF7BDFB18B066F31E012846BDE810
:104C4000F08D0220FEF742FCFEF728FC0A462146C2
:104C500018B062F31E01BDE8F08D002230466146B7
:104C6000FBF7A0FB80460E466FF00102FBF7D6FD76
:104C70004FF05532394BFBF798FB42463346FBF772
:104C800097FB0022364BFBF790FB824642463346A9
:104C9000049110461946FBF78BFB5246049BFBF729
:104CA00087FB8A4600904FF0C0422E4B404631466B
:104CB000FBF77EFB2C4A2B4B00E027E0CDE90601F9
:104CC00051460098FBF774FB82460191274A284B16
:104CD00040463146FBF76CFB5246019BFBF762FBFB
:104CE00082460B4602460591DDE90601FBF7B9FA5B
:104CF000DDE90623002688463046FBF753FB524683
:104D0000059BFBF752FB024600F07EB90020B1F58F
:104D1000801F07DA352230466146FBF77FFD0646E5
:104D20006FF0340000EB215024E00000FFFF1F0073
:104D3000FFFF0F000000F03F0000F07F0000404345
:104D400001FCFFFF4E0F00000000F0FF0000F0BF6D
:104D50000000E0410000F043FFFFEF3F5555D53F15
:104D60000000E03F4715F73FFE822B6544DF5DF80A
:104D70000BAE543EA0F2FF300190C1F3130040F09F
:104D80007F6141F040510291FE498842D8BF002026
:104D900004DDFD498142C8BF012001DD0D9008E01E
:104DA00000200D900198401C01900298A0F5801001
:104DB00002900299F54878440B910D9900EBC100DF
:104DC000D0E900230F9330460A920B99FBF7EAFAD9
:104DD000CDE90601DDE90A2130460F9BFBF741FAD8
:104DE00002460B460020EA49FBF7A9FC0591024662
:104DF0000B460090DDE90601FBF7DAFA1490E5486E
:104E00008A464FF0000878440299006812904FF0EB
:104E1000005040EA61010D980F9B01EB804000F5C6
:104E2000002109910A9A1298FBF7BCFA32460B9BB3
:104E3000FBF7BBFA42465346FBF7BAFA0646029125
:104E400040465146099B129AFBF7B2FADDE9062368
:104E5000FBF7ABFA3246029BFBF7A4FA059B009ADC
:104E6000FBF7A6FA0091149A04905346104619468F
:104E7000FBF79EFA06460246C7480B4602910621FA
:104E80007844FEF79DFACDE90510029B32461046A4
:104E90001946FBF78DFADDE90532FBF789FA059132
:104EA0000646534640461946149AFBF7DAF9009B2A
:104EB000049AFBF77DFA3246059BFBF7D2F9CDE960
:104EC00005104246534610461946FBF771FA002278
:104ED000B24B02910A90FBF7C4F9DDE90532FBF70A
:104EE000C0F90E464246AD4B4046FBF75BFA029BCB
:104EF0000A9AFBF757FADDE90532FBF756FA424604
:104F000002910A90334610465146FBF751FACDE91B
:104F100006015346149A02990A98FBF749FA8A4601
:104F200002903346424600990498FBF741FA5346F3
:104F3000029AFBF796F982460B4602460591DDE997
:104F40000601FBF78EF9DDE90623002088460646B8
:104F5000FBF728FA5246059BFBF727FA8246099190
:104F60004FF060428E4B30464146FBF721FA0490E9
:104F700006918C4A8A4B50460999FBF719FA8246EA
:104F80000291894A894B30464146FBF711FA524655
:104F9000029BFBF766F9864B7B440D9A03EBC20339
:104FA000D3E90023FBF75DF90E9007910198FBF719
:104FB00071FA0591DDE9061382460E9A0498FBF713
:104FC00050F97C4A7A440D9B02EBC303D3E90023DA
:104FD00000930292FBF745F95246059BFBF741F916
:104FE0000026884652463046059BFBF7DBF9009BBE
:104FF000029AFBF7D7F9069B049AFBF7D3F9079BB4
:105000000E9AFBF7D2F9024600200B460290384672
:105010002946FBF7CDF9824601912B4638461946C1
:10502000029AFBF7BFF932464346FBF7C1F95246F5
:10503000019BFBF716F907468A4632464346294646
:105040000298FBF7B5F905460E463A465346FBF77C
:1050500008F9594A8846914221DBA8EB020353EA3A
:10506000000210D12A463346FBF79CF9CDE9040132
:10507000524A534B38465146FBF7F3F8DDE9042317
:10508000FBF738FA21D20220FEF720FAFEF7FEF9EC
:105090000A46214618B062F31E01BDE8F08D494B67
:1050A00028F000429A4210D3474A08EB020353EA21
:1050B00000027FF4C6AD2A463346FBF773F93A4641
:1050C0005346FBF717FA7FF6BCAD0022019228F099
:1050D00000403E493E4A01EB2051824223DA481CFF
:1050E0004FF4801121FA00F040443A4AC0F30A51CB
:1050F0007A44394BA1F2FF31CB4020EA0303C0F3DD
:10510000130040F48010C1F11401C84012680190EE
:10511000B8F1000FBCBF4042019028463146FBF772
:1051200041F905460E462A46334638465146FBF7B6
:1051300098F84FF000084246284B40460591FBF78F
:1051400037F9CDE90601264A264B40460599FBF77B
:105150002FF9009102902A46334640460599FBF705
:1051600021F93A465346FBF720F91F4A1F4BFBF73C
:105170001FF9009B029AFBF774F80746884602461F
:105180000B4635E08E9803007AB60B00960B0000B4
:105190000000F03FCE0B0000FC0A000000000840B9
:1051A00009C7EE3FFD033ADCF5015B14E02F3EBE7C
:1051B000D40900009809000000009040FE822B6591
:1051C0004715973C00CC904000346F3F01FCFFFF37
:1051D0000000E03FE4080000FFFF0F00432EE63F21
:1051E000396CA80C615C20BEEF39FAFE422EE63F16
:1051F000DDE90601FBF735F8DDE9062305460E4635
:10520000FBF7D0F83A464346FBF7CFF80F462A465D
:105210003346009010461946FBF7CAF8824602460C
:105220002E4888460B4605217844FEF7C9F85246B9
:105230004346FBF7BDF82A463346FBF7B6F88046EF
:105240008A463B4628463146009AFBF7B1F83B4672
:10525000009AFBF706F80691009000224FF0804379
:1052600040465146FBF79EF80F460C904246534687
:1052700028463146FBF79CF83B460C9AFBF75FFA51
:10528000069B009AFBF78EF82A463346FBF78AF80E
:105290000022134BFBF789F8054601980E4601EBF7
:1052A00000510815002810DC28463146019AFBF70A
:1052B000B5FAFEF76DF8042808BFFEF7EFF82846A8
:1052C0003146019AFBF7AAFA05460B4618B02A4662
:1052D00058462146BDE8F04DFBF76AB88407000048
:1052E0000000F03F00E0401C20B1017811B10178CE
:1052F0002029F8DD70472DE9F04106460F46FBF7FF
:1053000022FB041E0D4618BF0120284320F0004058
:10531000C0F17F6000F1E040C00F0ED0301C18BF1C
:105320000120384320F00040C0F17F6000F1E040F0
:10533000C00F04BF0120FEF7C9F820462946BDE88A
:10534000F0812F6D79736D617274686F6D652F7068
:105350007562000000000000000000000000000076
:10536000000000000000F8000000000000003330E2
:1053700000000000100C06100C06000000000000E9
:1053800000000040C07840C0784000043F04043F63
:10539000040400007088FC08300000001820FF2181
:1053A0001E0000F008F000E018000000211C031EA1
:1053B000211E0000F00888700000001E212324191F
:1053C00027211010160E0000000000000000000051
:1053D000000000000000E0180402000000000718B0
:1053E00020400000020418E00000000040201807E0
:1053F000000000404080F0804040000202010F01A8
:10540000020200000000F0000000000101011F0185
:10541000010100000000000000000080B0700000EA
:105420000000000000000000000000000101010178
:105430000101010000000000000000003030000009
:1054400000000000000000806018040060180601E1
:1054500000000000E010080810E000000F102020FD
:10546000100F00001010F8000000000020203F2066
:1054700020000000700808088870000030282422EE
:105480002130000030088888483000001820202093
:10549000110E000000C02010F800000007042424B2
:1054A0003F240000F80888880808000019212020FF
:1054B000110E0000E0108888180000000F11202055
:1054C000110E0000380808C83808000000003F002E
:1054D0000000000070880808887000001C2221214C
:1054E000221C0000E010080810E000000031222219
:1054F000110F00000000C0C00000000000003030AC
:10550000000000000000800000000000008060003B
:105510000000000000804020100800000102040884
:105520001020004040404040404000040404040477
:10553000040400000810204080000000201008042F
:10554000020100007048080808F000000000303632
:10555000010000C030C828E810E000071827242305
:10556000140B000000C038E0000000203C230202C1
:1055700027382008F8888888700000203F202020E5
:10558000110E00C030080808083800071820202035
:1055900010080008F808080810E000203F2020202C
:1055A000100F0008F88888E8081000203F2020230A
:1055B00020180008F88888E8081000203F20000321
:1055C000000000C03008080838000007182020221A
:1055D0001E020008F808000008F808203F21010119
:1055E000213F20000808F8080800000020203F2084
:1055F00020000000000808F8080800C08080807FB4
:1056000000000008F888C028180800203F20012664
:1056100038200008F8080000000000203F2020206B
:1056200020300008F8F800F8F80800203F003F009C
:105630003F200008F830C00008F808203F2000078D
:10564000183F00E01008080810E0000F102020208C
:10565000100F0008F808080808F000203F21010199
:10566000010000E01008080810E0000F182424389A
:10567000504F0008F8888888887000203F20000379
:105680000C302000708808080838000038202121DC
:10569000221C00180808F8080818000000203F2005
:1056A00000000008F808000008F808001F2020206B
:1056B000201F000878880000C83808000007380E4E
:1056C000010000F80800F80008F800033C07000794
:1056D0003C0300081868808068180820302C0303F9
:1056E0002C30200838C800C83808000000203F20AF
:1056F00000000010080808C83808002038262120BB
:10570000201800000000FE020202000000007F409E
:10571000404000000C30C000000000000000010606
:1057200038C00000020202FE000000004040407F3E
:10573000000000000004020202040000000000005B
:1057400000000000000000000000008080808080D9
:1057500080808000020204000000000000000000C1
:1057600000000000008080808000000019242222B8
:10577000223F2008F8008080000000003F11202018
:10578000110E000000008080800000000E1120201B
:10579000201100000000808088F800000E112020F9
:1057A000103F200000808080800000001F22222205
:1057B000221300008080F0888888180020203F2075
:1057C0002000000000808080808000006B94949412
:1057D00093600008F8008080800000203F210000D6
:1057E000203F2000809898000000000020203F20EB
:1057F000200000000000809898000000C080808099
:105800007F000008F8000080808000203F24022DE7
:10581000302000000808F8000000000020203F2091
:105820002000008080808080808000203F20003F1A
:1058300020003F8080008080800000203F21000009
:10584000203F200000808080800000001F2020205A
:10585000201F00808000808000000080FFA12020A9
:10586000110E000000008080808000000E112020BA
:10587000A0FF80808080008080800020203F212049
:1058800000010000008080808080000033242424F8
:10589000241900008080E0808000000000001F20AC
:1058A0002000008080000000808000001F20202059
:1058B000103F20808080000080808000010E300832
:1058C00006010080800080008080800F300C030C77
:1058D000300F0000808000808080000020312E0E7C
:1058E000312000808080000080808080818E701850
:1058F00006010000808080808080000021302C2202
:1059000021300000000000807C0202000000000046
:105910003F404000000000FF00000000000000FFCA
:105920000000000002027C800000000040403F00B8
:105930000000000006010102020404000000000053
:105940000000000000C0E0F0F8FC000000000000D3
:10595000000000000000F03F000000000000F83FE1
:1059600000000000000000000000004003B8E23F1B
:10597000000000000000000006D0CF43EBFD4C3ECD
:10598000033333333333E33FFFAB6FDBB66DDB3FC2
:105990004D268F515555D53F01411DA96074D13F0A
:1059A00065DBC9934A86CD3FEF4E454A287ECA3F04
:1059B0003E5555555555C53F93BDBE166CC166BF86
:1059C0002CDE25AF6A56113FF16BD2C541BDBBBE7F
:1059D000D0A4BE726937663E0000000000000000DF
:1059E00000404040404040404040414141414140F2
:1059F00040404040404040404040404040404040A7
:105A00004005020202020202020202020202020235
:105A1000022020202020202020202002020202023A
:105A20000202909090909090101010101010101092
:105A3000101010101010101010101010020202029E
:105A400002028888888888880808080808080808E2
:105A500008080808080808080808080802020202DE
:105A600040000000E15900082F6D79736D61727478
:105A7000686F6D652F737562000000009C5A000806
:105A80000000002048080000040A0008A85C000884
:105A90004808002048080000BC34000840120003F9
:105AA000050911FF118905C300E000F000F80001AD
:105AB00000083A4428FF11AA440001500B83013822
:105AC000448292927401831120087C44FF017D7D01
:105AD0007D04410540047D01FF6E920102613F0398
